{
  "contractName": "GetAddr",
  "abi": [
    {
      "constant": true,
      "inputs": [],
      "name": "f1",
      "outputs": [
        {
          "name": "",
          "type": "uint256"
        }
      ],
      "payable": false,
      "stateMutability": "view",
      "type": "function"
    }
  ],
  "bytecode": "0x60806040526005600055348015601457600080fd5b5060a1806100236000396000f300608060405260043610603f576000357c0100000000000000000000000000000000000000000000000000000000900463ffffffff168063c27fc305146044575b600080fd5b348015604f57600080fd5b506056606c565b6040518082815260200191505060405180910390f35b600080549050905600a165627a7a723058206a6a34c74c08c2e5fc99c342b7d1453271f9c7e795e04f7a04db4f1860ab45570029",
  "source": "pragma solidity ^0.4.0;\r\n\r\ncontract GetAddr{\r\n    uint v3=5;\r\n\r\n    function f1() view public returns(uint){\r\n        return v3;\r\n    }\r\n}\r\n",
  "sourcePath": "C:\\Users\\wuchan4x\\Desktop\\eilinge\\demo1\\contracts\\GetAddr.sol",
  "compiler": {
    "name": "solc",
    "version": "0.4.24+commit.e67f0147.Emscripten.clang"
  },
  "schemaVersion": "2.0.1",
  "updatedAt": "2018-11-23T07:36:51.721Z"
}